:020000041000EA
:1000000000B5324B212058609868022188439860DF
:10001000D860186158612E4B002199600221596106
:100020000121F02299502B49196001219960352056
:1000300000F044F80222904214D00621196600F024
:1000400034F8196E01211966002018661A6600F04E
:100050002CF8196E196E196E052000F02FF8012189
:100060000842F9D1002199601B49196000215960AB
:100070001A491B48016001219960EB211966A021F2
:10008000196600F012F800219960164914480160C1
:100090000121996001BC002800D000471248134993
:1000A000086003C880F30888084703B5996A0420EC
:1000B0000142FBD001200142F8D103BD02B5186610
:1000C0001866FFF7F2FF186E186E02BD00000240BE
:1000D000000000180000070000035F00212200005C
:1000E000F4000018222000A00001001008ED00E03C
:1000F00000000000000000000000000074B24E7A12
:1001000000200420F7010010CB010010CD010010E9
:10011000C9010010C9010010C9010010C901001077
:10012000C9010010C9010010C9010010CF01001061
:10013000C9010010C9010010D1010010D301001045
:10014000C1010010C1010010C1010010C101001067
:10015000C1010010C1010010C1010010C101001057
:10016000C1010010C1010010C1010010C101001047
:10017000C1010010C1010010C1010010C101001037
:10018000C1010010C1010010C1010010C101001027
:10019000C1010010C1010010C1010010C101001017
:1001A000C1010010C1010010C1010010C101001007
:1001B000C1010010C1010010C1010010C1010010F7
:1001C000EFF30580103800BE00BE00BE00BE00BECA
:1001D00000BE00BEF2EB8871808E0010B88E001059
:1001E0003802001090A31AE71E481F49086006C88D
:1001F00081F3088810471D480068002801D019487D
:10020000F3E70DA40ECC002902D000F012F8F9E7B4
:100210001749184A002000E001C19142FCD116495B
:100220008847164988471649884700BEFDE701C937
:1002300001C29A42FBD37047B88E0010C000002064
:10024000283A002020C800100000042000000420EC
:1002500020C800100010042000100420000000003E
:10026000704700000000000008ED00E0000000D032
:10027000283A002020670020054B0010B509001027
:10028000FD4A0010F8B5C04606480749091A8B1008
:10029000C90FC91810B5491003D0044B002B00D06A
:1002A000984710BD283A0020283A0020000000009E
:1002B000054B10B5002B03D00449054800E000BFF2
:1002C000FFF7E2FF10BDC046000000005C430020C5
:1002D000FC81001003001E3BDBB21A2B03D8174A27
:1002E0009B00D3589F46164B185C70473F20FCE795
:1002F0003E20FAE73C20F8E72220F6E73A20F4E730
:100300007C20F2E77D20F0E77B20EEE72B20ECE776
:100310005F20EAE72920E8E72820E6E72A20E4E74B
:100320002620E2E75E20E0E72520DEE72420DCE768
:100330002320DAE74020D8E72120D6E7008200100A
:10034000808A0010F0B583B06B4604000D009F1D3D
:1003500001AE3A00310005F061F9164804F060FD85
:10036000154804F05DFD154804F05AFD21001448BD
:1003700004F0DAFD2900134804F0D6FD3A883188EC
:10038000114804F0D1FDD02380221B0692042900DD
:1003900020005A6106F0D2F8002804D10B4804F07E
:1003A0003FFD03B0F0BD0A4804F03AFD094804F0EF
:1003B00037FDF6E76C820010E08200101083001019
:1003C0008483001098830010A8830010C08300105D
:1003D000F08300101884001070B50D0004000A4866
:1003E00004F01EFD094804F01BFD094804F018FD47
:1003F0002A002100074804F097FDD02380221B0625
:1004000092049A6170BDC0466C8200104C8400104A
:10041000108300107C840010F0B54E464546DE4641
:100420005746E0B5140005000E0083B0072B08D92D
:10043000724B082221001800019307F083FC00286A
:100440000AD13100280006F079F803B0F0BCBB46B1
:10045000B246A946A046F0BD01F074FB00293DD08C
:10046000FA220023920001F0C5FF07002378984686
:10047000634B9B461B689A46A31C99465346C72B61
:100480007ED939005F4804F04FFD4346002B2BD145
:100490005D4804F049FD08239A465C4A0023170092
:1004A0005B4AA24493460EE07A5C1300203B5E2B2D
:1004B00000D93F22584604F037FD0123012294461B
:1004C000E144CA4551D04A4611780029F6D00B1FA5
:1004D000192BE9D80A005D32D2B2EBE7FA21890084
:1004E00001F04AFF0700C1E7DB077ED443469B07C4
:1004F00077D443465B0770D443461B0769D4434611
:10050000DB0662D443469B065BD443465B0654D469
:1005100043465BB2002B6CDB3B4804F005FD082230
:100520002223924642464F46A2441342B3D0384B50
:100530009B460FE04046FFF7CDFE0300203BDBB2B9
:100540003F225E2B30D94146584604F0EDFC01377E
:1005500057450CD03B789846002BF8D0043B192B1C
:10056000E8D842463D32D2B2EDE7002B1ED00A2039
:1005700004F00CFC08222100019802F023FE60E741
:10058000524641465000234B504480001A18C75031
:1005900005301171C0180622494602F013FE534679
:1005A0005A46013313606CE70200CCE74346002B48
:1005B000DDD1194804F0B8FCD9E7184804F0B4FCC0
:1005C000A6E7174804F0B0FC9FE7164804F0ACFC1F
:1005D00098E7154804F0A8FC91E7144804F0A4FC3F
:1005E0008AE7134804F0A0FC83E7124804F09CFC5F
:1005F0007CE7114804F098FC8EE7C046785D002047
:10060000805D002098840010A4840010808A00106F
:10061000EC840010845D0020FC840010DC84001059
:10062000D4840010CC840010C4840010BC8400105A
:10063000B4840010AC840010E4840010F0B5C64609
:10064000BC4B00B51800984604F0EAFBBA4804F029
:10065000E7FBBA4804F0E4FBB94804F0E1FBB94E0B
:10066000B948316804F060FCB84804F0D9FBB848D8
:1006700004F0D6FB3368002B00D1FDE00025B54C1B
:10068000B54F7FE0002811D0031F192B00D807E1D8
:10069000FFF720FE0A2800D104E1082800D145E137
:1006A0000300203BDBB25E2B00D8FBE0A0780028E3
:1006B00011D0031F192B00D8F7E0FFF70BFE0A2813
:1006C00000D1F4E0082800D156E10300203BDBB262
:1006D0005E2B00D8EBE0E078002811D0031F192B27
:1006E00000D8E7E0FFF7F6FD0A2800D1E4E008288B
:1006F00000D13DE10300203BDBB25E2B00D8DBE004
:100700002079002811D0031F192B00D8BEE0FFF775
:10071000E1FD0A2800D1BBE0082800D124E1030054
:10072000203BDBB25E2B00D8B2E06079002811D00C
:10073000031F192B00D8AEE0FFF7CCFD0A2800D12B
:10074000ABE0082800D10BE10300203BDBB25E2BBD
:1007500000D8A2E0A07900280FD0031F192B00D8E1
:10076000ADE0FFF7B7FD0A287FD0082800D189E067
:100770000300203BDBB25E2B77D9336801350C34A4
:10078000AB4279D92222237860781A4200D079E7E7
:10079000002810D0031F192B00D8AEE06E4B185C58
:1007A0000A2800D1ECE0082800D19DE00300203B9E
:1007B0005E2B00D8A3E0A078002810D0031F192BCF
:1007C00000D895E0644B185C0A2800D1DCE00828CA
:1007D00000D185E00300203B5E2B00D88AE0E07862
:1007E000002810D0031F192B00D88BE05A4B185C3F
:1007F0000A2800D1D4E0082800D16DE00300203B96
:100800005E2B00D880E0207900280ED0031F192B22
:1008100000D886E0385C0A2800D1B9E0082857D013
:100820000300203B5E2B00D87DE0607900280CD0CF
:10083000031F192B6BD9385C0A2800D1B4E00828B3
:1008400042D00300203B5E2B63D9A079002894D0CE
:10085000031F192B60D9385C0A2800D19CE00828B6
:1008600010D00300203B5E2B87D804F08FFA33684A
:1008700001350C34AB4285D8404604F0D1FA80BC37
:10088000B846F0BD354804F04FFB76E73D30C0B2C6
:1008900004F07CFA49E73D30C0B204F077FA59E73A
:1008A0003D30C0B204F072FA00E73D30C0B204F04F
:1008B0006DFA10E73D30C0B204F068FA20E73D3031
:1008C000C0B204F063FAD2E7244804F02DFBBCE781
:1008D000224804F029FBA8E7204804F025FB92E712
:1008E0001E4804F021FB7AE71C4804F01DFB62E778
:1008F0005D30C0B204F04AFA71E75D30C0B204F076
:1009000045FA58E75D30C0B204F040FA7BE75D304D
:10091000C0B204F03BFA98E75D30C0B204F036FA9A
:10092000A5E75D30C0B204F031FA7EE70B4804F071
:10093000FBFABBE6BC83001008850010A085001000
:10094000DC850010805D0020748600109086001009
:10095000A4860010885D0020808A0010D8860010D0
:10096000134804F0E1FAF5E6114804F0DDFADCE69C
:100970000F4804F0D9FAC3E60D4804F0D5FAAAE608
:100980000A2004F003FA16E70A2004F0FFF926E72C
:100990000A2004F0FBF948E70A2004F0F7F9ECE636
:1009A0000A2004F0F3F92EE70A2004F0EFF94CE7EF
:1009B000D8860010F0B587B004F0E2F9FA20C00044
:1009C00000F014FF0A2004F0E1F93C4804F028FA92
:1009D0003B4804F025FA3B4804F022FA3A4804F078
:1009E0001FFA0A2004F0D2F9192000F053F9D0239D
:1009F00080221B06920402AC5A629A612200334B99
:100A0000002723CB23C202251B68314813602570C1
:100A100004F006FA02212F4804F086FA03212E483A
:100A200004F082FA2D4804F0FBF90A2004F0AEF934
:100A300022006421012004F009FE6B4601A9012077
:100A40009D8004F007FE264804F0EAF9254804F0EA
:100A5000E7F90A2004F09AF9234804F0E1F9234861
:100A600004F0DEF9224D234E01F06CF800291ED06F
:100A7000FA220023920001F0BDFC04002B68A3427F
:100A800002D007F049FB2C6001200021404205F014
:100A900075F83368002BE7D0174AE31B9342E3D97C
:100AA000FFF7CCFD270001F04DF80029E0D1FA2135
:100AB000890001F061FC0400E0E7C04608850010F1
:100AC000E48600101C870010DC850010008B0010ED
:100AD000548700106C87001080870010A0870010DA
:100AE000B8870010D4870010008800102C880010F0
:100AF0004C430020805D00203075000010B5024896
:100B000006F0ACF8012010BD108B00107047C046F5
:100B1000014B987BC0B27047005D002010B50020EB
:100B200006F090F910BDC04610B5002006F0AAF9F5
:100B300010BDC046024B587B012358407047C04649
:100B4000005D002010B5002006F0C0F910BDC046C1
:100B500010B50023002006F0D5F910BD00B583B014
:100B60006846008A0090002006F058FA03B000BDE5
:100B700010B5002006F09AFA10BDC04610B500204E
:100B800006F01CFA10BDC046094A83009A1810B539
:100B900014684022544080322240064CC000A446D3
:100BA00063441A60044B9C466044416010BDC046DB
:100BB00004C0014004D0014000400140074B8000C8
:100BC000C3181B68C90092000A435A400C23134003
:100BD000034A9446604403607047C04604C0014025
:100BE00004D00140064BC000C3181B6809045940DB
:100BF000C0239B021940034B9C4660440160704730
:100C00000440014004500140064BC000C3181B685B
:100C100009025940C0239B001940034B9C46604485
:100C2000016070470440014004500140064BC00081
:100C3000C3181B6809035940C0239B011940034B8B
:100C40009C466044016070470440014004500140EC
:100C5000054B8000C3181B684B4001211940034B12
:100C60009C4660440160704704C0014004D00140CC
:100C7000064B8000C3181B68054A09015940944679
:100C8000302360440B4003607047C04604C00140FD
:100C900004D001400123D022834012069362936165
:100CA000094A83009A1811684022514080320A4054
:100CB0000649C0008C4663441A60054B9C460523D8
:100CC000604443607047C04604C0014004D0014006
:100CD000004001400FB400B5084883B004F0A0F80C
:100CE000049B002B07D005A91800019103F0D2FE48
:100CF000034804F095F8012003F0E4FEBC880010DE
:100D0000BC830010EFF3108072B6034A1368002B07
:100D1000FCD0BFF35F8F70472C0100D0BFF35F8F13
:100D20000022024B1A6080F3108870472C0100D01B
:100D300070B5EFF3108C72B60D4D2B68002BFCD004
:100D4000BFF35F8F0724CB08C618C05C01230C409B
:100D5000A3401C000440034207D118433070BFF386
:100D60005F8F2C608CF3108870BD1000FFF7B2FF0E
:100D70002C0100D0F8B54746CE46884680B5EFF343
:100D8000108C72B61C4D2C68002CFCD0BFF35F8F0A
:100D90009A4222D807210126894602E00132934275
:100DA00018D34D4637001540AF40D4080119045DF3
:100DB0002742F3D110003C430C70BFF35F8F002239
:100DC0000D4B1A608CF3108800280EDBC0BCB946AE
:100DD000B046F8BD01204042EFE7BFF35F8F00232C
:100DE0002B608CF31088012040424346002BEDD04D
:100DF0000898FFF76FFFC0462C0100D0044A107816
:100E0000431CDBB2172B00D9102313707047C04668
:100E10003033002010B5064B064C82B00100009321
:100E200018221F232000FFF7A5FF02B010BDC04607
:100E3000CC880010044300200021044B044ABFF377
:100E40005F8F02C39342FAD17047C046000100D0C1
:100E5000800100D0054B064A1360064A13605360B8
:100E60009360D36013615361936170478080808089
:100E700000E400E004E400E01F2318401E3B834030
:100E8000002905D0C021044A49005350136070471F
:100E9000802201498B50FAE700E100E070B50D00B7
:100EA000EFF3108672B60F4A1368002BFCD0BFF325
:100EB0005F8F0D4B10309B6884001B590B4A934287
:100EC00003D09D4201D001F0FFF8074B9B681D51F4
:100ED000BFF35F8FBFF35F8F0022024B1A6086F370
:100EE000108870BD240100D000ED00E0C1010010A9
:100EF000F0B5DE4657464E464546E0B50C0083B099
:100F0000EFF3108872B6634A1368002BFCD0BFF36E
:100F10005F8F614B61499A68030010339F00D55978
:100F200001938D4243D0A54254D05D4EAA1B2F2A77
:100F30003DD85C4B9B461B68994601231A009C4692
:100F400082404B4613401F2299466346024093401D
:100F50009A4680225B4650469850BFF35F8FEFF36E
:100F600005839B46002B37D0019B5B4501D001F0E8
:100F7000ABF801232A009A439068844208D176E0B6
:100F80004B005B189B00F3189868844236D01A0017
:100F9000062151560029F3DA844254D04B46002BE7
:100FA00027D0C02251463F4B5200995019603A4B0E
:100FB0009B68DD51BFF35F8FBFF35F8F0022354B1E
:100FC0001A6088F3108803B0F0BCBB46B246A9464D
:100FD000A046F0BD0D00EAE72A0063469A439068F8
:100FE0008442D5D106201056130000280ADA0D00DD
:100FF00031E0802351462B4AD150D8E706201856BD
:10100000002821DB42001118890074188B46A16862
:101010009960E179D971062161569971002924DB23
:10102000A488F11A640524155C44091909051E4CAD
:10103000490D2143998013181C4A9B001178F3181D
:1010400099711070AAE713005946002914D1FF3195
:1010500091711749918015490A789A71154A9B1B1D
:101060005B415A43120D0A7098E71149E2E70620E6
:10107000105613000028C5DA0F4A1049D21A083A50
:101080005002400D014399800D4952080A43DA800D
:1010900084E7C046240100D000ED00E0C10100104B
:1010A0003433002000E100E000E0FFFF1A67002079
:1010B00001BDFFFFAAAA00006E33002000F0FFFF71
:1010C00000F8FFFF70B501240443EFF30581EFF34F
:1010D000108C72B6214A1368002BFCD0BFF35F8FCF
:1010E0001F4B05001F4AED1A6D416A43120D1E4D3C
:1010F0008900AE6852B27658A6421CD006215956D5
:1011000091421CD012215956914222D01E2159568B
:10111000914220D02A2159560324914210D0134BDA
:1011200019781A708171BFF35F8F00220B4B1A6020
:101130008CF3108870BDAB680D4C5C50EFE7002459
:101140006100091989005B18FF219971094999808B
:10115000E5E70124F4E70224F2E7C046240100D0C9
:1011600034330020AAAA000000ED00E01A67002036
:10117000C101001001BDFFFF024B9C466144890084
:10118000016070474000003470B5114C114DAC4205
:101190000FD2FF262368002B0CD0FFF72FFE010093
:1011A0002000FFF7E9FFA680BFF35F8F0834AC4251
:1011B000F0D370BDFFF722FE01002000FFF7DCFF37
:1011C0002671BFF35F8F0834AC42E3D3F1E7C0462A
:1011D000183A0020283A002010B50400FFF70EFE50
:1011E00001002000FFF7C8FFFF232371BFF35F8FCB
:1011F00010BDC04610B504000120FFF70BFE034BE5
:10120000C3189B002360BFF35F8F10BD4000003404
:101210000A4B1968EFF3108072B60A68002AFCD0F6
:10122000BFF35F8F1B68BFF35F8F00221A6080F3EC
:10123000108840BF002000217047C046F0660020A3
:10124000F0B5DE4657464E464546E0B587B0EFF36B
:101250000583032201251A40954091008846A9463E
:10126000B14B03925C58B14B1D60B14B04934B469C
:10127000B04843630823E55E002D37DAA3881BB22C
:10128000002B00DBADE0A379002B00D0EEE00823BB
:10129000E15E002920DB4B0062695B18DB00D3189C
:1012A0009E68DD68731C00D10DE1A2480100414435
:1012B000826A0B69B71A9B1A9F4215D30123026AEF
:1012C000039883401A420FD09A4800F033FC8D42B5
:1012D00002DCCCD18642CAD940BF07B0F0BCBB46C5
:1012E000B246A946A046F0BD0E61EDE762696B000B
:1012F00092465B19DB009A4453469E68DF6800F013
:1013000019FC8F42BADC00D1FFE0002F00DAE4E0E4
:101310005246534652691B699346049A934200D140
:10132000D5E052460821605E5288000459461043B9
:101330009847009001910099019A0B001000134307
:1013400000D1CAE013000A00B61A9F41002806DB4C
:10135000784800F0EFFB009E019F36184F4153463E
:101360009E60DF6000229A5E002A00DA86E7530062
:1013700099186069C900411802938B68C9689B4637
:10138000B94200DD7AE702D1B34200D976E70823FB
:101390009C46A444059565462281A446029B2C00E8
:1013A00006E053009918C90041188D68C968AB461A
:1013B0009B18DB00C318B94206DC00D1AFE01C006B
:1013C0000023E25E002AECDA230064469C46534682
:1013D0001A806346059D1D80A3881BB2002B00DA8E
:1013E00051E72269EFF3108172B61368002BFCD02D
:1013F000BFF35F8F0123A7885B42A3803FB22369BD
:10140000BFF35F8F00221A6081F31088002F00DA8B
:1014100039E72300083322009A4666697B00DB190E
:10142000DB00F318996850468C460824115FDD688C
:10143000002910DB029306E0AB4240D00023E15EBE
:101440002000002906DB4C006418E4003419E3682E
:10145000AB42F1DD029B078000201F5E1980002F48
:10146000DCDA1400A379002B00D110E70023A3716C
:1014700026000823E15E08364B1C00D12CE7B44659
:10148000656903E084464B1C00D100E74B005B1804
:10149000DB00E8180A00E95E43881BB2002BF1DA92
:1014A00001267642F7178660C7600826A35F93423D
:1014B000E9D063461980238903802281E3E7A3688A
:1014C0006345BBD9C6E76B1C00D0EEE6FCE65B4685
:1014D00058461B69984700281BD153461B88226930
:1014E0002381EFF3108372B611680029FCD0BFF39B
:1014F0005F8F514662880A8022696580BFF35F8FE3
:101500000021116083F31088B8E6864200D8FCE61B
:10151000B4E65B461A685B68009201930BE7B3453B
:1015200000D84CE750E7C046605D00203C700540A5
:10153000411200100040054070B52E4C2569002D69
:1015400004D00A212C48FFF717FE70BD2B4E032153
:10155000300000F0E5FAE660FFF750FC284B03226C
:101560009C46D02322701B061B6801216370254B0B
:101570006044A3600F2380002061022063806369C0
:101580004942A18019800231198647311D83585282
:1015900018315A5275325C399952183201319952C8
:1015A00018320131995218320131995208351832E6
:1015B0009D52023118329952183201319952183223
:1015C0000131995218320131995218320131995230
:1015D0001832013199520C4B0C49DC6001303562F4
:1015E000FFF75CFC01210320FFF746FC084B1D6060
:1015F000A7E7C0467C330020F0660020004005408D
:1016000040000034FFFF1000605D00204112001018
:1016100038600540F0B5C646060000B518200F003A
:10162000904601F081FD051E3FD01821404601F093
:1016300099FD39006861300000F072FAEE60FFF742
:10164000DDFBD0222F70120612681A4B6A709C467E
:101650000122434652429BB26B819B186B804346EA
:101660006044800028612A81AA80002B0BD05A0098
:101670006C694244D200104B121923800133183494
:101680009BB29442F9D10124BC400C4BBA00380003
:101690000B493462D550FFF701FC01213800FFF7F8
:1016A000EBFB084B9C4666443460280080BCB8467F
:1016B000F0BDC04640000034FFFF0000605D002028
:1016C000411200103820000070B501000469EFF3EA
:1016D000108C72B620680028FCD0BFF35F8F022008
:1016E0000D5E4C6968004019C00024180869002D7F
:1016F00036DB26884E80BFF35F8F002606608CF3B2
:101700001088E36063880498013320615B040598C6
:101710005B0CA26060611A1C002B1FD093B22804DE
:10172000628018430A69EFF3108C72B61368002BBD
:10173000FCD0BFF35F8F8B8823808D800B69BFF354
:101740005F8F00221A608CF310880B7801329A4068
:10175000CB6808498C4663441A6070BD0122DDE7FE
:10176000BFF35F8F002303608CF310880120404299
:10177000F3E7C0463C20000010B543890A149342A9
:101780001ADD53009B184269DB00D3180469EFF39C
:10179000108C72B62268002AFCD0BFF35F8F5A8883
:1017A000090494B2090C8A4208D00369BFF35F8F21
:1017B00000221A608CF31088002010BD80221202D3
:1017C00014435C80012302698371BFF35F8F0021A2
:1017D00011608CF31088044902788C469340C268EB
:1017E000012062441360E8E73C200000F0B5C646E3
:1017F00000B582B0040000F0A5F9FA2206000F003F
:10180000200000230021920001F0DAFB80197941C9
:1018100004000D1E02DA01242E4D64420626764293
:10182000F71736196F41AF4214D811D000F08AF97A
:1018300032003B00121A8B41002B15DC002B46D0E6
:101840002000290000F00AFA02B080BCB846F0BDC2
:10185000A642EBD90026002700F074F932003B00C5
:10186000121A8B41002BE9DD00F06CF932003B00CD
:10187000121A8B41002B0ADB00230193164B320016
:10188000009316483B00FFF71FFF0130D8D000231C
:101890003900B0469C46124A1248536A994204D80D
:1018A000966A4645CCD29942CAD10668EFF31087B2
:1018B00072B63368002BFCD0BFF35F8F0368BFF3B1
:1018C0005F8F66461E6087F3108820BFE5E7002A19
:1018D000B6D0C9E7FFFFFF7F111200107C33002054
:1018E00000400540F0660020F0B557464E46DE4603
:1018F0004546E0B506000F0085B0EFF30583994635
:101900008B46002B12D0384900204B6ABB4206D3CD
:101910008A6ADB1B591E8B41B2424041184305B015
:10192000F0BCBB46B246A946A046F0BD2F4B9A4636
:10193000DB68984653461B784046039300F0FAF85C
:101940004246039B040004339B009B580D001B1A66
:1019500039003000001BA941894510DC0DD020BFA3
:10196000214A0020536A5B45D9D3926ADB1B591E7A
:101970008B41B24240411843D1E78342EFD900F096
:10198000E1F832003B00121A8B41002B1ADB0023D6
:101990000193174B3200009350463B00FFF794FE33
:1019A000011E0FDD104B5A6A5A451BD39B6AB34286
:1019B00016D35046FFF7E0FE0B4A0020536A5B4502
:1019C000ADD3D2E7084A0020536A5B45A7D3002075
:1019D000926ADB1BB24240415A1E934118439EE774
:1019E0005A45E6D120BFE4E7004005407C330020A3
:1019F00011120010F0B5CE464746110080B583B0F5
:101A000004009C460C9D194300D16CE06146DB1735
:101A10000193009353401E00019B4B401F00009810
:101A20000199361A8F4163460A996B600B9BAC6033
:101A300029612A606B6100F085F8801979410029DD
:101A400002DA0120314940422269EFF3108972B66F
:101A50001368002BFCD0BFF35F8F0223E65E63693F
:101A600072009219D2009B1822699046002E42DB28
:101A70001A886280BFF35F8F002247463A6089F37D
:101A80001088234A9860D9601A615A885D610132D2
:101A90005204520C111C002A2BD088B2320402438B
:101AA00059802069EFF3108772B601680029FCD0D5
:101AB000BFF35F8FA1881980A6802369BFF35F8F72
:101AC0000021196087F31088124823788446013179
:101AD00099400120E36863441960EA6003B0C0BC28
:101AE000B946B046F0BD00230126002701229C46DE
:101AF00099E70121D1E7BFF35F8F0023136089F3DA
:101B00001088012200205242E7E7C046FFFFFF7F16
:101B1000411200103C200000004870470040054082
:101B200010B5024A0248FFF703F910BDE88800101B
:101B3000084300200300416A0A00986A596A8A42F1
:101B4000FAD17047034B596A0A00986A596A914260
:101B5000FAD170470040054070B504000D00174AE7
:101B6000536A1900966A536A8B42FAD13000190001
:101B700024184D41AB4216D813D0104B2A005B6A93
:101B80009D4203D90D494B6A9342FCD3934207D13E
:101B90000A4A02E0516A994202D1916AA142F9D3FC
:101BA00070BDA642E9D9054B5B6A1C005A1CEFD0F8
:101BB000012201246442E5175242E3E70040054058
:101BC000244B70B598420BD843011B1A224A9B0044
:101BD0001818916AC000936A5B1A9842FBD870BDCE
:101BE000FA2200239200002101F0EAF904000D001E
:101BF000194A536A1900966A536A8B42FAD1300027
:101C0000190024184D41AB4218D9134B5B6A1C00D4
:101C10005A1C0AD0012301246442E5175B420E4995
:101C20004A6A9A42FCD39A42D9D10B4A02E0516ADD
:101C30009942D4D1916AA142F9D3D0E7AB4205D001
:101C4000054A2B00526A9542E9D8ECE7A642F7D93B
:101C5000DBE7C0469BC4200000400540064A536AAB
:101C60009942FCD807D1044B02E05A6A914202D152
:101C70009A6A9042F9D8704700400540F8B50400D0
:101C800006200D0000F078F9002844D0374B384981
:101C9000E3185A1E93418022120494465B429B0D26
:101CA000344A9B0563441360334A136018000A6882
:101CB0009043FBD12D4B314AE31859424B418021CF
:101CC0005B0049000620995200F056F92900C00037
:101CD00000F052FB0130C3091ED14027012262628D
:101CE000A362266BF30722D4E36A254B0620E5188E
:101CF00000232B60266300F03FF93900800000F0DC
:101D00003BFB7023E26A5A400E3313402B601D4B9D
:101D100023630323A364F8BD1B4A93421ED9002307
:101D20001A4A1B4F6262A362266BF307DCD5194B7C
:101D3000144AE3181A60656AA36A0620AD01ED181B
:101D400000F01AF9144900F017FBAD020100280059
:101D500000F012FB0021FFF7FFFEC5E74006800EF2
:101D60009F011A003F180300B9E7C0460080FCBF7E
:101D700008C0004000E0004000F000400C67002078
:101D80002C10000001030000FEFF0000FFFF000018
:101D9000C0FF3F00303000004E0E0000F8B5DE46B8
:101DA0004E4657464546E0B58B4605000A99180051
:101DB000160000F0E1FA0A9B6C001F02324B641916
:101DC0009C46A4006444636881469F4200D96760D2
:101DD0002B1FDBB29846012B30D9C02380229B01F8
:101DE000E31812011A60294BAD0059599A4600298F
:101DF0001BD17301E026226853401E4080234246D7
:101E00005B01E3181E60012A30D9802380229B01E8
:101E1000E31812011A6053464A4667605A51F0BCF3
:101E2000BB46B246A946A046F8BD586900F0A4FAE0
:101E3000013043001B18033BFDD2DAE75B46012B60
:101E4000CBD1C02303229B01E3181A60023AA36896
:101E50001A42FCD07301E0262268AD0053401E40B8
:101E600080230A4A5B019246E3181E605A462168A5
:101E7000514003220A401A6001225B469A40A3683F
:101E80001A42FCD0C1E7C046008000401043002049
:101E9000F0B546464F46D646C0B51F00344B440009
:101EA0009C462418A4006444636888461600FF2BEF
:101EB00002D880235B006360031FDBB29A46012BCC
:101EC00030D9C02380229B01E31812011A60294BEC
:101ED00085005959994600291BD17301E0262268D3
:101EE00053401E40802352465B01E3181E60012AC6
:101EF00030D9802380229B01E31812011A608023CD
:101F00005B0063604B465F51E0BCBA46B146A846F1
:101F1000F0BD586900F030FA013043001B18033B54
:101F2000FDD2DAE74346012BCBD1C02303229B012C
:101F3000E3181A60023AA3681A42FCD07301E02643
:101F40002268850053401E4080230A4A5B01914667
:101F5000E3181E6042462168514003220A401A607D
:101F6000012342469340A2681342FCD0C1E7C04619
:101F70000080004010430020014B8000C058704793
:101F800010430020F8B5040021481E0017000D0082
:101F900000F0F2F90100380000F0EEF9069B36047B
:101FA0001B031E432368002B20DB1A4B1A49E3183E
:101FB0005A1E93418022920194465B421B0B174AA2
:101FC0001B0363441360164A13601F000A6897439B
:101FD000FBD1144B2560E2182123A0601360236815
:101FE000002BFCDA0823E6601360F8BD3F2322686B
:101FF0001340AB42D9D1A3681B051B0D8342D4D13A
:10200000EE22E368D2021340B342CED1EDE7C046E0
:10201000001BB7000040FDBF08C0004000E00040CA
:1020200000F00040043000008023024A9B000B4374
:10203000D362704700800540002310B50100988AE4
:102040001B8B984710BDC046162310B50100188899
:1020500002331B88984710BDF8B54746CE4680B579
:102060000F1E18D0142399460433040000250126BE
:1020700098464B461888434621681B88984701C4F8
:10208000431E984101350640AF42F2D13000C0BC3A
:10209000B946B046F8BD0126F8E7C046AA23064A6D
:1020A0001B0113608D235B00D3600449044B19604E
:1020B0005368002BFCDA70470040024000B0FA0081
:1020C000006002407047C04610B50148FEF702FEAE
:1020D0000C89001070B5074D074EB54209D2002497
:1020E000013E761BB60808CD984723000134B34261
:1020F000F9D170BDB8810010F4810010054B064A7B
:1021000006491A60064A074B1A6010000B6898438C
:10211000FBD1704700E00040BFCDFBFE08C000408F
:10212000FE7F3C0000F00040044BDB6C002B03D131
:102130008022034BD2021A607047C0460000115043
:102140004C201150044A054B1A60054A1368DB0104
:102150008033FBD17047C046FFFFFF0100F0004015
:1021600008C000404022034B9A675A671A67DA6634
:102170007047C04600F0014010B5FEF75DFE10BD8F
:10218000F8B52749274C284D641AA6103200302E86
:1021900000D930222800920001F014F8BC2C3BD862
:1021A00030202F232C196407204A801BE40F9B1B2F
:1021B000052B16D93700002C02D0B300771CEA504B
:1021C000001B33199B004108EB18C900C9181A609D
:1021D0005A6008339942FAD1012303421CD0984334
:1021E000C619B300EA50731C2F2E15D09B00EA507D
:1021F000B31C2E2E10D09B00EA50F31C2D2E0BD0BA
:102200009B00EA50331D2C2E06D09B00EA50731D14
:102210002B2E01D09B00EA50054B9D60F8BDC046B7
:1022200000010010C001001000000020C1010010DA
:1022300000ED00E0002310B5294C82B0A367FFF742
:102240002DFF0122274B1A60636C012BFCD1032266
:10225000254B1A60224A936B012BFCD1013300936A
:102260000121224A22480433FFF78CFE0523012175
:102270000093204A2048FFF785FE00220221042017
:102280001E4BFFF705FE0022012105201C4BFFF726
:10229000FFFD0022002107201A4BFFF7F9FD002265
:1022A00000210820174BFFF7F3FD8023DB0000938C
:1022B000002200210920134BFFF770FD0022104B74
:1022C00000210620FFF7E4FD0420FFF755FE0E492C
:1022D00000F052F801000020FFF7A6FE02B010BD8A
:1022E000008000403CB0004030B00040002F6859F2
:1022F00000800240008C864700C00240001BB700EF
:1023000040597307006CDC0240420F000148042171
:10231000014B1847A033002059200010014B9B6847
:1023200018470000A0330020124A936F9B0815D273
:102330009066D166002905D0FFE7FFE7FFE7516F00
:10234000106F704704B580210906C217514000285C
:1023500000D0C84305F000FF002104BDF0B5146EA5
:10236000556E576F166FFFF7E3FF14665566576794
:102370001667F0BD000000D0114A936F9B0813D27E
:1023800010665166002905D0FFE7FFE7FFE7516FB0
:10239000106F704704B5002801D00020C04305F03D
:1023A000DBFE002104BDC046F0B5146E556E576FBC
:1023B000166FFFF7E5FF1466556657671667F0BDA1
:1023C000000000D094464A4A926F9208624601D2B9
:1023D00028E0C046F0B5464E346E756E776F366FA6
:1023E00000F020F89446424A14665566576716670F
:1023F0006246F0BD94463E4A926F9208624601D210
:1024000054E0C046F0B53A4E346E756E776F366F55
:1024100000F04CF89446364A1466556657671667BE
:102420006246F0BD002B24DB11D000293EDA00B556
:10243000C943404200D1013100F038F8C94340425D
:1024400000D10131DB43524200D1013300BD002AEB
:10245000EBD1002801D1002905D00020C90FC90700
:1024600001D1C043410800B505F066FE00220023FB
:1024700000BD00B500290ADBDB43524200D1013325
:1024800000F014F8C943404200D1013100BDC943F6
:10249000404200D10131DB43524200D1013300F010
:1024A00005F8DB43524200D1013300BD002923D19E
:1024B000002B18D1002A0CD0BC460D4F38667A6626
:1024C00000210023FFE7FFE7FFE77A6F386F6746D9
:1024D0007047002801D00748010000B505F02CFE28
:1024E0000022002300BD02000B00002000217047E5
:1024F000000000D0FFFFFFFF002B00D0BFE0130C57
:1025000028D1002AE7D080B4114F39667A66FFE7F8
:10251000FFE730B4040C7B6F396F1B0423433B6629
:102520007A66FFE7FFE7FFE7C04684B27B6F3D6F47
:102530001B0423433B667A66FFE7FFE7C0460023A0
:102540002C042D0C7A6F386F00196941B0BC7047AC
:10255000000000D0F0B594460025140E01D11202FF
:102560000835140F01D112010435940F01D19200E6
:102570000235D40F01D152000135D40B0134254F5F
:102580007C66254C3C660E0C93B2FFE7FFE7FFE745
:102590003C6F6643360C7703BE467343DF0B5B0428
:1025A000C01AB941130C7343DB18C91ACE0866432D
:1025B000360CB64493B273431F0F1B01C01AB941C6
:1025C000130C73431F0B1B05C01AB941860D8F02F4
:1025D0003E436643360C092D24DB520A7243801AAF
:1025E0007703460A6643360C16235B1BDE40DF404A
:1025F000BF1964466643821B7046043506330100EA
:10260000D940A840C01900D30131A24206D200230C
:10261000F0BD0000000000D0FFFFFFFF121B0130E3
:10262000F3D3F1E709277F1BFE406446A2B2724351
:10263000801A00D20139220C7243130C1204821A40
:1026400099410B007046043513370100F940A8404A
:10265000801900D30131002B02D1A2420AD2F0BD71
:10266000013000D30131121BFAD2013BF8D1A24252
:1026700000D2F0BD013000D30131121BF7E7F0B5F5
:102680001C0C00D080E00CB400251C0A04D11B02F5
:10269000160E3343120208351C0B04D11B01160F12
:1026A0003343120104359C0B04D19B00960F334336
:1026B00092000235DC0B02D192185B4101351C00FF
:1026C000971864410134464F7C66464C3C660E0CBC
:1026D000FFE7FFE7FFE7C0463C6F6643360C770332
:1026E000BE4697B27743C01B00D20139C01B00D24F
:1026F00001399FB27743C91BC91B170C77437E046E
:10270000FF0B801BB941CE086643360C0C2D33DB22
:10271000B644120B1F053A431B0B97B27743C01BFD
:1027200000D201399FB27743C91B170C77433E048F
:102730003F0C801BB941860D8F023E43664329271B
:102740007F1BFE400C3D7746AF40BF1930BCA2B2A4
:10275000ABB272437343801A9941220C7243130C3B
:102760001204801A994102000B000137001BA94195
:10277000F9D2781E0021F0BD0C277F1BFE40774662
:102780007F0BAF40FF19E0E700245D1C07D0144F1A
:102790007D663966FFE7FFE7FFE7FFE73C6F95B22D
:1027A0009EB265436643401BB141150C1E0C654348
:1027B000664336042F0C3E432D04401BB141994221
:1027C00004D202000B0020000021F0BD01D1904294
:1027D000F7D3801A994101349942F2D3F6E7000009
:1027E000000000D0FFFFFFFF48404140484018B4C0
:1027F0001B4B5B68FC46019308BD04DF932A001065
:1028000018B4174B1B68FC46019308BD00DF9D2AD6
:1028100000109446134A926F920809D2624618B487
:102820000F4BDB68FC46019308BD0CDF552D0010F3
:102830000C4AF0B5146E556E576F166F6246FFF76F
:10284000EEFF084A1466556657671667F0BD18B460
:10285000034B9B68FC46019308BD08DFF92B001071
:10286000A83B0020000000D0FFB55040424050403F
:1028700059404B40594000E0FFB5154F4C00640DE6
:1028800003D0BC4204D10C0314D80020090D090563
:102890005C00640D03D0BC4204D11C030AD80022A2
:1028A0001B0D1B0501264B4009D44B4003D58B4221
:1028B00000D18242FFBD9942FCD19042FFBD0B4343
:1028C000DB1803431343F5D0C9434918FFBD00008B
:1028D000FF07000000B5FFF7CFFF804100BDC046F5
:1028E00000B5FFF7C9FF01D9002000BD012000BDE0
:1028F00000B5FFF7B9FF01D9002000BD012000BDE0
:1029000000B5FFF7B1FF804100BD012040054A003E
:10291000121804D85A00121801D80020704701205C
:10292000704700000021002805D17047C1174840BA
:10293000401AFAD0C90713B5064B1B6898470CBC60
:10294000441CA2401005120B0349091B0905194339
:10295000114310BDEC6600201F04000010B54C00B0
:10296000620D8023D218DB00D21A5B057E2A10DDAF
:102970009E3A13DACC170903490819435242D14051
:10298000640001341532202A05DAD0400843604340
:1029900010BD002010BD0846604310BDC80FC01810
:1029A000013810BD18B4044B5B6AFC46019308BDA6
:1029B00024DF052F00100000A83B0020132370B572
:1029C0001D78012D19D014DD1F48FFF73DFB0600CF
:1029D0001E48FFF739FB1E4C80223100200000F01A
:1029E000F1FB022D2DD01B48FFF726FB1A4B186078
:1029F00070BD1A4B164CA364F5E7184B144C2360BA
:102A00006360A360E36023616361A361E3612362A8
:102A10006362A362E36223636363A363E363236488
:102A20006364A364E36423656365A365E365236668
:102A30006366A366E36623676367A367E367A364CC
:102A4000D1E7064BA364CEE7534400005346000091
:102A5000A83B00204C330000EC660020612A0010E7
:102A600007B5604601880A0A0230DF2AFAD1C9B2E6
:102A7000820804D3028840880004104300E0006804
:102A8000014A5050039007BDA83B00200FB403BC7F
:102A90000CBCF0B50124E407634000E0F0B50C0D78
:102AA000CF0F661E3605891B640503D3C943404218
:102AB00000D30131640D03D0661CF60A07D0E41B75
:102AC00000207F00791C89078912803C24031D0D9A
:102AD000DF0F6E1E36059B1B6D0503D3DB43524291
:102AE00000D301336D0D03D06E1CF60A07D0ED1B29
:102AF00000227F007B1C9B079B12803D2D032F1B18
:102B0000661B58D4A446202E46DA20371400BC4059
:102B10001D00BD40F24033412A4380185941CB0F7C
:102B200005D0C943C043002264425041514162462E
:102B30004D0D28D10D0D07D100281FD0241940417B
:102B40004941013A0D0DF9D0640006D3013000D39C
:102B50000131002C01D140084000013A0BD4941CF3
:102B6000E40A04D112051144DB071944F0BDD9076A
:102B7000204B194300E0D9070020F0BD0029DDD12A
:102B8000002CDBD1F0BD0132C6074008CD07284339
:102B90004908002EE1D0D9E73C2E29DA203E403703
:102BA0001400BC4000D00124F24014431A00BB4082
:102BB0001C43D317ACE7AC46202F08DA20360400BC
:102BC000B4400D00B540F84039412843A5E73C2FFB
:102BD0000CDA203F40360400B44000D00124F84015
:102BE00004430800B1400C43C117EAE71000190084
:102BF000002494E70000F07FF0B50C0D661E36054A
:102C0000891BE60A6405640D02D0651CED0A04D038
:102C1000002001210905803C2403A4461C0D671EE9
:102C20003F05DB1BE70A6405640D02D0651CED0A55
:102C300004D0002201231B05803C24037740644418
:102C400097B484B296B27443070C7E43150C6F435D
:102C500080B26843361802D3012000043F183004C4
:102C6000350C00197D41844688B29AB250430C0C51
:102C700062431F0C7C438EB27E43921902D301261D
:102C80003604A4191604170C3618674101BC81B22A
:102C90009AB25143040C62431B0C5C4380B258430C
:102CA000121802D30120000424181004130C401839
:102CB00063412D185E410020474106BC88B293B2A3
:102CC00058430C0C6343120C544389B251435B18B4
:102CD00002D301210904641819041A0C091862416D
:102CE0006D1856410020474118BCF902720D11437E
:102CF000F0026A0D1043ED020A0D03D16D19404137
:102D00004941013B124E9B1B7600B3420ED26D002F
:102D100007D30130002671416646354301D1400892
:102D200040001B05C918E4072144F0BD0BDA01334C
:102D300006D1013004D101314F0D01D04908F2E72D
:102D4000E1070020F0BD013631050020EBE700006F
:102D5000FF030000F0B51C0D671E3F05DB1BE70AF3
:102D60006405640D02D0661CF60A04D0002201231B
:102D70001B05803C2403D0252D060026F6432E6635
:102D80001E096E66CE0FF619B44649004F0D02D0EB
:102D90007E1CF60A03D000200021403F3F033E1B6B
:102DA000B600B444013F7F05C91B49082E6F0136A8
:102DB00076089C02950D25437543ED137543AD13BD
:102DC00001356D10F603761B0CB4CC02450D2C4377
:102DD000A2B2B3B25A43270C7B43350C6F43A4B263
:102DE0006C431B1902D3012424043F191C041D0C3D
:102DF000A4187D4124196D41009A91B2ACB261438F
:102E0000170C7C432B0C5F4392B25A43A41802D395
:102E100001221204BF182204230C52187B41019C8A
:102E20006C431B19520ED9010A434401A01A81B206
:102E3000B2B2514303145A43360C734387B27743FB
:102E4000D617D21900277E4136049B191704160C99
:102E50007F185E417316ED18F3010026803375412B
:102E6000A90F06D16400690AE8055B0A184309D274
:102E70002FE00422944480337541A90AA8059B0AD7
:102E8000184326D3404149412404009A019B0D0078
:102E90005543641B4343E41A95B286B27543170C3D
:102EA0007E43030C5F4392B25A43B61802D3012209
:102EB0001204BF183204330C52197B4152429C4118
:102EC000002C02D40022013051414008CA071043AF
:102ED000490802B06246D7079210084BD218084B37
:102EE0009A4203D212058918C919F0BD0020002AA0
:102EF00001DC3900F0BD01331905F5E7FD030000E1
:102F0000FE070000002200B5203200F004F808009F
:102F100000BD000000220B150AD410B5944600F045
:102F200031F81414013400DA0021CB17144C204777
:102F30000020002170476244343A0CD40C2A07DA8E
:102F400004009140904052422032D440214310BDB1
:102F5000D843D94310BD203207D40C469440524286
:102F600020321141D040204310BD0800C917203243
:102F700003D452422032104110BD1800190010BD78
:102F8000372F00100A0DCC0F531E1B05C91A52050E
:102F900003D3C943404200D30131520D03D0531C27
:102FA000DB0A07D0121B00206400611C890789120C
:102FB000803A1203014BD21A70470000FF03000051
:102FC00051434343C9188C46110C83B24B4310B490
:102FD000040C614392B280B2504362431C041B0C48
:102FE000001910BC59411304120CC018514161441E
:102FF000704700004840414048400E4B5B6818470E
:103000000C4B1B6818470C4A936F9B0802D2094B64
:10301000DB681847F0B5146E556E576F166FFFF7E3
:10302000F6FF054A1466556657671667F0BD014BF3
:103030009B681847A83C0020000000D0491A0028CF
:1030400008D1084670470000C10FC90700D54042AB
:10305000002817D0F44603B40B4B1B68984706BCF6
:1030600081409E384042803107D20B0607D049008C
:10307000490AC0051043084360470130F8E7490A90
:103080008902F5E770470000EC660020014B5B6A9F
:1030900018470000A83C0020132310B512481C78E4
:1030A000FEF7D2FF0100012C0AD003DD80220F4879
:1030B00000F088F80E48FEF7BFFF0E4B186010BDF9
:1030C0000A4C5422200000F07DF80B4B6365A36589
:1030D000E36523666366A366E36623676367A367A6
:1030E000E3672362E361E5E753460000A83C002064
:1030F0004C330000EC660020FD30001007B5604640
:1031000001880A0A0230DF2AFAD1C9B2820804D340
:10311000028840880004104300E00068014A5050D3
:10312000039007BDA83C002070B504000A4E300093
:1031300005F03AF8200004F005FB0500300004F02B
:10314000E3FF002D05D0054B2C199C4201D8280027
:1031500070BD0348FDF7BEFD183A002000000420B2
:1031600018890010F8B506000C000C4F380005F067
:103170001BF82100300004F085FA0500380004F047
:10318000C3FF7443002D05D0054B2C199C4201D878
:103190002800F8BD0348FDF79DFDC046183A002001
:1031A000000004201889001001480421014B184731
:1031B000B033002059200010014B1B681847000055
:1031C000B0330020014B5B6818470000B03300208B
:1031D0007047C046F8B55746DE464E464546E0B510
:1031E00099460A9B07009A460D9B884693460B9C7E
:1031F0009B073BD10C9B9C423DD21E1B0B941500A0
:103200000C005E442A004B46013521002020B847BF
:10321000B542F7D1A0460B9C002C20D0454636196C
:103220005346321B013C185D29004B46B847002C21
:10323000F6D12B00350098460D9B9B070FD55B46BA
:10324000EC1A0C9BA3420AD9464698462A004B46E4
:10325000310020200134B84701354445F6D3280019
:10326000F0BCBB46B246A946A046F8BD1600150004
:10327000002CD3D1E0E716001500002CCED1EEE7EC
:10328000F0B54546DE4657464E46E0B585B09C460D
:1032900010AB1B78149F934698460F9C129E139D6B
:1032A000BB074CD4002D42D1B44248D201233B404D
:1032B00099460E9B013B9A46302304E05246013466
:1032C0001355A64201D9202CF8D14B46002B00D132
:1032D00083E00E9B013B99463023A54205D82EE0A2
:1032E0004A4601341355AC4229D0202CF8D1FB06B4
:1032F0000CD57B0554D4A64263D0A54261D0119B66
:10330000102B50D0022B57D0202C32D120230193E8
:103310000E9B5A460093039763460295FFF75AFFA8
:1033200005B0F0BCBB46B246A946A046F0BD01239D
:103330003B40994601233B422AD1B442B9D3FB0614
:103340001CD57B05DBD4002CD5D1119B102B5BD079
:10335000119B022B6BD0302301240E9A137043462D
:10336000002B10D17B073ED52B260E9A631C1655D9
:10337000CDE72300013430260E9AD654202CC5D038
:103380004346002BEED02D260E9A631C1655BEE741
:103390004346002B2FD0013DB44200D289E798E785
:1033A000119B102BB2D1BB0637D5202CAED05823A1
:1033B0000E9A13550134A7E7202CA7D0230001341F
:1033C00007E0631E012CC0D0119A102A31D0022AC6
:1033D000D1D162260E9AD65496E7FB06CED57B0550
:1033E00000D488E78BE723003E0790D520260E9A6D
:1033F000013316558BE70C233B405A1E9341ED1ABF
:10340000B44200D255E764E7BB060ED478230E9A87
:103410000224137030235370A1E7202C00D175E7EC
:1034200078230E9A135501346EE75823EFE7603383
:10343000EDE70E9AA61E91464E44BA0602D55822D2
:10344000327098E77822327095E7C04610B50028B0
:1034500000D110BD01F09AFCFBE7C0460B0010B58F
:10346000002802D049681B68984710BDF0B5574640
:10347000DE464E464546E0B595B083460F0092467F
:1034800098461E9A1F9B10001900209EFFF73DFAD8
:10349000002800D0EAE11E981F990122C54B524234
:1034A000FFF718FA002800D014E11E981F99012296
:1034B000C14B5242FFF724FA002800D0E9E01E98E1
:1034C0001F990022BD4BFFF71BFA002800D0C8E06F
:1034D0001E981F990022BA4BFFF7FCF9002800D074
:1034E000BFE01E981F9900220023FFF7F3F9002880
:1034F00000D0E4E000230B93229B5B0500D406265A
:103500000024302307E0172106AA0134521813556E
:10351000013E202C01D0092EF5D81E981F99FFF7E7
:103520001DFAA84BF2009B181A685B680500089208
:103530000993FFF7FBF902000B001E981F99FFF794
:1035400056F9089A099BFFF782F906900791FFF751
:1035500029FA8146FFF7E6F902000B000698079961
:10356000FFF745F90022984B06900791FFF7C8F93D
:10357000002800D10DE101239C46E1444846FFF7B5
:10358000D1F902000B0008980999FFF7A9F9002862
:1035900002D0002399460135002E00D1D9E00695CE
:1035A0004D46B94614E006AA944617230A216344FF
:1035B000280001341F19FEF7DFFE30313970280072
:1035C0000A21013EFEF7D8FE092D00D817E10500BB
:1035D000202CE8D14F46069D20240CAE06AA1723C6
:1035E0009446634499465B46B34606930FE04B46C8
:1035F00028000A210134E618FEF796FE3031280033
:1036000031700A21FEF790FE051E00D1E4E0202C67
:10361000EDD1069B5E469B460323229A1340012B65
:1036200018D1219B002B15D00B9B002B00D1FDE066
:10363000219B013B2193202B0CD93023219A07E0B9
:10364000172006A9013409180B55944200D3CCE089
:10365000202CF5D1229B01940393219B0096029389
:1036600022E0229B52460493219B39000393584643
:103670001E9B1F9C029600930194434600F04AF95A
:103680000400200015B0F0BCBB46B246A946A046D7
:10369000F0BD229B5B070FD403224C4B2299019271
:1036A00003912199009302914346524639005846AE
:1036B000FFF790FD0400E4E70422454BEEE71E9A75
:1036C0001F9B00200021FFF792F801231E901F91FD
:1036D0000B9311E7229B54469B0711D1219B042B8E
:1036E0000ED9219B55469C465E46043C64442A0004
:1036F0004346013539002020B047A542F7D1B346F3
:10370000344D26002B1F99465B46A3461C00320011
:10371000E87843463900013DA04701364D45F6D1D2
:1037200023005C469B46229B04349B07A9D5534645
:10373000219AE31A9A42A4D95E4615002200434614
:1037400039002020B04753460134E31A9D42F5D892
:1037500097E72800FFF7EAF802000B001E981F9970
:10376000FFF745F80022184B06900791FFF7B2F8D3
:103770000CAE002800D031E7069807990022124BC2
:10378000FFF7BEF8002800D028E7012301359D434C
:1037900024E70022069807990B4BFFF79BF80028B7
:1037A00000D0F9E64B46002B5CD101239C46E14456
:1037B000F2E6C046FFFFEFFFFFFFEF7F65CDCD4193
:1037C00065CDCDC1288D00100000E03FAC89001010
:1037D000A4890010B4890010069B5E469B46032313
:1037E000229A1340012B00D181E0202C00D131E737
:1037F0000B9B002B27D02D23335501342AE74F464E
:10380000069D202C00D1E7E63022331907E017206F
:1038100006A9013409180A55202C00D1DCE6A34280
:10382000F5D12E220CAE0134F254D7E60C23229AA5
:10383000134257D0219B013B2193A34200D9FCE6C0
:10384000202C00D106E7229B5B0703D52B233355A1
:103850000134FFE6229B1B0700D4FBE620233355EF
:103860000134F7E6DB0700D496E69EE7229B554637
:103870009B0711D1219B032B0ED9219B54469C46BB
:103880005E46033D65442200434601343900202052
:10389000B047AC42F7D1B346B9465F461C4EEC1C6C
:1038A0002A00B078434649460135B847013EA54253
:1038B000F6D1229BBB464F469B0700D4E1E6534618
:1038C000219AE31A9A4200D8DBE65E4615002200F0
:1038D000434639002020B04753460134E31A9D4245
:1038E000F5D8CEE6219BA34200D9A6E6B2E6219BFD
:1038F000002B00D179E70B9B002B97D0219B013B3C
:1039000021939C4200D298E6202C00D073E7A1E6D8
:10391000B0890010F0B5DE4657464E464546E0B544
:1039200099B081468B4692469846229A239B100076
:103930001900FEF7EAFF002800D0CAE02298239978
:103940000122824B5242FEF7DBFF002800D0C0E08C
:103950002298239901227E4B5242FEF7BBFF00289A
:1039600000D0B6E02298239900220023FEF7B2FF90
:10397000002800D0C9E1229B239C08930994089851
:1039800009998023269ADB001A400D928022269CFA
:103990001201144022000B94269C07000E001C42CA
:1039A00000D0ADE00B00034300D0D5E0002A00D0EA
:1039B0000AE2220006332493022313400C930223CD
:1039C000134200D002E2259B042B00D20FE2043BFD
:1039D0000B93002304250A930022229823990023A5
:1039E000FEF778FF002800D003E25A4B269A1340D6
:1039F00004930B9B0393249B0293089B099C0093C5
:103A000001945946434652464846FFF72FFD0200AF
:103A10002020269B1F27034059424B415B42184000
:103A2000531C0893594643464530C8470A9AD31752
:103A3000D4185C40D30F0A936B1E0B9308AB9C46C3
:103A40000025674401E0202D0FD020000A21FEF759
:103A500093FC01357E193031317020000A21FEF7C8
:103A60008BFC26000400092EEDD8052306930B9B42
:103A700059460593002304930A3303930A9B48464F
:103A8000029310AB0093089A43460195FFF7F8FBA9
:103A90000C9B002B2DD05346C41A259BA34228D93A
:103AA0004D465F4681461E00534639001A192020B4
:103AB00043460134A847A642F6D8534648462599BE
:103AC000C21A01320023914200D386E10130181856
:103AD0000FE0269B0493259B0393249B0293229B38
:103AE000239C009301944346524659464846FFF7AB
:103AF000BDFC19B0F0BCBB46B246A946A046F0BD1D
:103B000001432BD10B9B2200002B00D154E7002353
:103B10000A93249B0A9A0024934200DD85E12298AF
:103B2000239900220023FEF7D5FE002800D035E1BE
:103B3000269B084A02941A408023DB001343049317
:103B4000259B0393089B099CCBE7C046FFFFEF7FB3
:103B5000FFFFEFFFFFF7FFFF06232493B44B700036
:103B60009C46400D6044FEF7E1FEB24AB24BFEF7C0
:103B70006EFEB24AB24BFEF743FE3603B14B360B34
:103B8000334304000D00380019000022AE4BFEF74D
:103B90002EFEAE4AAE4BFEF75AFE02000B0020008E
:103BA0002900FEF72DFEFEF7D9FE0A90FEF7BEFEB5
:103BB000A84AA94B04000D00FEF749FE0022A74BBE
:103BC000FEF71EFEFEF7CAFEA54A0600A54B200022
:103BD0002900FEF73CFE040030000D000C96FEF7B5
:103BE000A5FEA14AA14BFEF732FE02000B00200009
:103BF0002900FEF7FCFD02000B0006000F00FEF797
:103C000026FE320004000D003B0030003900FEF7B4
:103C1000F7FD00220E900F91954B20002900FEF732
:103C2000F8FD0022934BFEF7EBFD02000B00200095
:103C30002900FEF7EEFD00228F4BFEF7E1FD0200AA
:103C40000B0020002900FEF7E4FD0D008021040098
:103C500032003B000020C905FEF7C9FD02000B0041
:103C600020002900FEF7CCFD02000B000E980F99F2
:103C7000FEF7CFFD0022734BFEF7C2FD7F4B0C9C7D
:103C80009C46644400222305FEF7E1FD06000F0078
:103C900002000B0008980999FEF71CFE00280AD0C4
:103CA0000A9B3000013B39000A930022714BFEF75A
:103CB000B0FD06000F000A9A330063323900C62AAD
:103CC00012D802222698042510400B9A0C90002A44
:103CD00025D1259B042B05D9002800D0A1E0259BE8
:103CE000043B0B93042541E00222269810400B9AD6
:103CF0000C90002A12D1259B052B76D9002872D171
:103D0000259B0525053B0B9334E080221206944643
:103D1000229B0893239B6344099330E605250B43BC
:103D200000D1F6E608980999554A564BFEF7E0FD92
:103D3000002808D0089809990022534BFEF7CAFDC5
:103D4000002800D0E5E6249B002B1CD00D9B002B07
:103D500019D0249B013B2493259BAB4204D90C9B97
:103D6000002B5AD002230C9300230B930A9B002BA9
:103D700000D131E60898099932003B00FEF749FD71
:103D80000890099128E6259BAB42EDD90C9B002BAE
:103D900043D000230B9302330C93E7E78020269B4C
:103DA0003A4A00061A40802384460294089C099DE2
:103DB0002900DB0013430493259B614422000393F5
:103DC0000B00009201938EE60524A8E600230B93D6
:103DD0000A93023304250C93FEE553468C46013BBF
:103DE00063441B1A72E602230C930525C2E70423E1
:103DF000EDE58020089E099F000639008446269A3A
:103E0000224B6144134004930B9B32000393249B89
:103E100002930B0000920193F3E5259B5B1B0B9330
:103E2000A4E7022304250C93A0E79C1A013C76E644
:103E300001FCFFFFFB799F501344D33FB3C8608B55
:103E4000288AC63F0000F03F0000F83F61436F63DF
:103E5000A787D23F71A379094F930A400000E03F42
:103E60001655B5BBB16B0240EF39FAFE422EE63F64
:103E700000002C400000244000001840FF03000018
:103E80002D431CEBE2361A3F80842E41FFF7FFFFE3
:103E9000F0B5DE4657464E464546E0B5A5B01E0095
:103EA0002E9B92460C93CD4ACD4B80468B461A6092
:103EB000002900D1EAE1002330789946002800D19A
:103EC000ECE1C84B4C460B93C74B454657460E9307
:103ED0000AE0631C984622003B005946A847444626
:103EE0003078002800D187E001362528F1D1082359
:103EF0009A46043B9946023B9846013B00229C4669
:103F00000D943078711C0300203BDBB2102B03D8DA
:103F10000B9C9B00E3589F460300303B89460D9C59
:103F2000092B3AD9002398462A2800D1C1E0002362
:103F30009A462E284BD00300683BDBB2122B1ED8CA
:103F40000E999B00CB589F4663460E001A43D8E754
:103F500043460E001A43D4E74B460E001A43D0E7FF
:103F600010230E001A43CCE753460E001A43C8E74D
:103F700080235B001A43FF3B9C467078E1444E4629
:103F800067284FD82428A4D90300253BDBB2422B55
:103F90009FD896499B00CB589F46002394461E000D
:103FA00000E00131B3009B195B001E180878303E19
:103FB0000300303B092BF4D90123624689469C4615
:103FC0000023B0469A460E00E1442E28B3D130219A
:103FD000802049428C46C000024370784B4684449E
:103FE0006146092900D86CE12A2800D17AE1012331
:103FF0009C464E46E1449EE7A146A846BA46CA45BD
:1040000003D801235B425344994653464A465946D6
:104010000020C047200025B0F0BCBB46B246A946F0
:10402000A046F0BD0300693BDBB20D930F2B00D916
:104030004FE7012199408C466D49894661464B46C0
:1040400019400F91634649460B4200D028E10D9B71
:104050000A2B3AD0072B00D03BE70C9B190008C96C
:104060008846002B00D14BE121200243914614A940
:104070008C461F220F2162448C4651460D950C91AF
:10408000A24615000F9902E020290CD013006446C7
:104090001C4020003730092C00D807380131685403
:1040A0001A090F2BF0D80C9B54460D9D9A460F9180
:1040B00033E10C9B02CB8846002947DB0C9301239C
:1040C0009C4670784E46E14431E70C9B02CB14933A
:1040D0005346002B00D138E19C4608780B000C9029
:1040E0008C44002801D100F098FC89466146944632
:1040F00003E05A780133002A01D08B42F9D14946B6
:1041000062465B1A0C900F93530500D520E1022301
:10411000180010400D90134200D1CBE30D930B1B00
:10412000B1469A465E460C9822003B003100A847F3
:1041300053460134185D0028F6D1B3464E460D9B18
:10414000002B00D0C7E1149B0C93C9E60C9301230C
:104150009C46283849420243884670784E46E144DE
:10416000E5E670786C2800D17FE180235B001A437C
:10417000FF3B9C46E14402E780239B001A43012356
:104180009C467078E144FAE67078682800D173E1C3
:1041900080231A437F3B9C46E144F0E6672800D128
:1041A00003E1472800D15AE1452800D15AE10492A1
:1041B000072142460C9B0392073352468B4319005A
:1041C00002920CC92800009201930C9122003B003E
:1041D0005946FFF79FFB040082E6C046913E00105F
:1041E000504300208C8B0010D08B00101C8C0010D2
:1041F00041900000462800D1DBE0049207214246AE
:104200000C9B0392073352468B43190002920CC950
:104210002800009201930C9122003B005946FFF7C1
:1042200025F904005CE6631C984622003B005946D1
:104230002520A847444653E60C9B04330D93631C8A
:104240009946920700D422E10C9B22001878594627
:104250003B00A84743464444012B00D885E2330085
:10426000B8462E005F4625004C469946220043463C
:10427000013439002020B047AC42F7D12C00BB46B6
:10428000350047464E460D9B0C9329E6DB4B3078B4
:10429000984600239946002800D012E60024AEE696
:1042A0006F2800D188E000D80BE31023782800D1D4
:1042B000CFE09A430A239C4600230F930A330D93C1
:1042C00080E05646B1008919490001330E1818786C
:1042D000303E010030390929F4D9B2461E000133BD
:1042E000994628E60C9B023602CB8A46C9435046C3
:1042F000C917084082460C933078731C99461AE619
:104300001023100098431133184381468020130076
:10431000C0000340024200D1A9E64B4606930823A1
:1043200005935346049310230393002302930F9B9A
:10433000220001931CAB009359463B002800FEF776
:104340009FFF434604000C93CAE501235B42C3E68A
:104350000F9B534501D953460F9302231800104079
:104360000D90134200D1B7E10D93D1460B1B9A4635
:104370003300A1442E0022004D460C98B9465F46FA
:104380009B4608E04B463900541CB0475346185D25
:10439000002877D022009542F4D15B46BB464F46B9
:1043A000A94635004C461E00C9E680231B011A436E
:1043B000FDE620231A4320E708239C4600230F93A1
:1043C00008330D9380231100DB0019401A4200D1FD
:1043D00016E10D239A431000802302009B001A402F
:1043E0001492184200D0C2E1802302005B001A4000
:1043F00091460C9A04320F92184200D0B7E243065D
:1044000000D59FE1030600D419E30C9B1B88099398
:10441000002B00D0FCE110339843002900D1F7E1D4
:104420000023994643460593534604930D9B0690FB
:1044300003930023D2E0582808D0622867D10223D2
:104440009C4600230F9302330D93BBE720231A43AE
:10445000103B9C4600230F9310330D93B2E780234B
:104460001B011A4320231A43A1E6C0239B001A43D1
:10447000F31C9946B07882E5C0231A43F31C994691
:10448000B0787CE535005E46BB464F4657E643466E
:10449000012B00D863E1631E43449A463300B946BA
:1044A0002E005F4655469B46A24622004B460134ED
:1044B00039002020B047AC42F7D135005E46BB46FC
:1044C0004F46A14654460C9B4A46187859463B0035
:1044D0004444A847D7E6A1460F9B984500D832E64A
:1044E0004444E41A3300B8462E005F4625004C468B
:1044F000994622004346013439002020B047AC429F
:10450000F7D12C00BB46350047464E461BE68023BC
:104510001000DB0018401A4200D10FE111211800F1
:104520008A430D920D9A802311009B0019408C46FE
:104530001A4269D1802311005B00194089460C9909
:1045400004310F911A4200D0CAE113005B0600D576
:10455000F0E013001B0600D459E20C9B00229B5E86
:10456000D9175A184A4092B2D90F0C91002B00D19A
:10457000F9E1100014AA944642461F2314925246B1
:104580006344A84616944D460400B946B2461F003F
:10459000159201E0202D0FD020000A21FDF7ECFE3E
:1045A00001357E193031317020000A21FDF7E4FE1B
:1045B00026000400092EEDD8149B4F46A946454617
:1045C0009846159B56469A46169C0D9B0693434665
:1045D0000593534604930A2303930C9B02934B4683
:1045E00001931CAB2200009359463B002800FEF7C4
:1045F00047FE0F9B04000C9372E4C046D1310010BB
:104600000C239A431000E7E607220C9B07339343E1
:10461000013294469C4462460C920CCBD90F0F9108
:104620001100194300D191E0D91713911291514013
:10463000109113995940119110981199129A139B46
:10464000801A99411090119114AA00239446424671
:104650009946149252461F336344A846B2461694B4
:104660004E46109C119DB94615921F0001E0202E68
:1046700010D0200029000A220023FDF7BBFE0136DE
:1046800030322B00BA550D0022000400002BEED171
:10469000092AECD8149B1094119545469846159B11
:1046A0004F46B14656469A46169C0D9B0693434686
:1046B0000593534604930A2303930F9B02934B469F
:1046C00001931CAB2200009359463B002800FEF7E3
:1046D000D7FD0400FFF704FC0F9B984500D8C1E10B
:1046E0008023DB000D9343460F9A1B199B1A9946B2
:1046F00033002E004D46B9465F469B460C91220082
:104700004B46013439002020B047AC42F7D1434634
:104710000C9901330F930B7835000C935E46BB4622
:104720004F46002B00D10EE50D9B002B00D1F6E487
:10473000002319E60C9B1B781A0015E710239A43F7
:104740000D92EFE60C9B1B78099361E600239946D6
:104750000028AAD1002200231092119374E70C9B29
:104760002200187859463B00A8474C468BE50C9A26
:10477000FA3BFF3B07329A430133994691444B463B
:104780000C931368526815921A4306D11032904365
:1047900000220992002900D081E06122810600D523
:1047A0004122D2B20A9214AA91460A9A00210A3AE8
:1047B000149242461792524618925A460991B346AD
:1047C0001F311E000F9B4944BA4619941A950024C4
:1047D000674698468946159D16901B920AE030322E
:1047E000D2B24B4601341A55A8454AD0202C4AD0A3
:1047F00006000D003A00002330002900FDF7FAFD05
:10480000D2B2092AEBD9149B9C466244D2B2E8E7A3
:104810006123820600D54123DBB20A3B0C93434659
:1048200014A91F228C46159353466244A046B246F3
:104830004C461797A9461700099D0D9E1490169394
:1048400008E03033DBB201343B55B5420ED3202CA7
:104850000CD0050031002800FDF78EFDCBB20929F0
:10486000EFD90C9A94466344DBB2ECE7159B4D46B6
:10487000A14644469846169B564614989A46179F5A
:10488000D0E5B742B2D9179B57469846189B5E466B
:104890009A461B9B09949B461698199C1A9D434661
:1048A0000593534604930D9B0690039300230293B4
:1048B000099B05E70F9B984500D914E701330F9337
:1048C0002DE41023110099430D91692800D0BAE01E
:1048D00080231000DB0018401A4200D122E61DE6BA
:1048E0000C9B1B68DA0F1100002B00D18CE0DA174B
:1048F0009818504014AA914642461F2314925246DB
:104900004B44A046A946169704006546B2461F00D0
:104910000C91159201E0202D0FD020000A21FDF707
:104920002BFD01357E193031317020000A21FDF751
:1049300023FD26000400092EEDD8149B444698461A
:104940000C9BAC461900159B56464D469A46169F41
:104950000D9B0291069343460593534604930A2305
:10496000039363463CE6002800D02EE602E60C9B4B
:104970001B689946002B03D110339843002938D186
:104980006123820600D54123DBB20A3B0C934346E8
:104990001693534614A91F228C4617932B0062448A
:1049A000A0464D46B246189799461700149C0D9E96
:1049B000159008E03033DBB201343B55B5420ED3DD
:1049C000202C0CD0050031002800FDF7D5FCCBB21F
:1049D0000929EFD90C9A94466344DBB2ECE7169BA5
:1049E000149444469846179B56464D469A46159849
:1049F000189F43460593534604930D9B06900393DB
:104A000000230293149BEBE50028A1D172E70C9BD5
:104A10001B68D9175A184A40A6E580231000DB000E
:104A200018409C460F901A420FD0022003001340FA
:104A30000F93104219D00023A1460F934CE50C9B15
:104A40001B680993E4E40A0034E4022318001040D0
:104A50000D90134200D03EE54346002B00D042E6C5
:104A6000FFF771FB01330F937FE463460D93F3E788
:104A700010B50C0084B00394012402A902900093A5
:104A8000034813006242FFF703FA04B010BDC046AA
:104A90005D34001010B5094A0300146884B0002C7E
:104AA00008D0012200910648524203A9A0470120E4
:104AB00004B010BD00F0B4F90020F9E75043002025
:104AC0004D34001000BEFDE7094A030010680028BD
:104AD00005D00849C3188B4207D8136070470648B1
:104AE0000449C31810608B42F7D901204042F5E712
:104AF00044430020000004202067002010B5FFF789
:104B0000E1FFC04670B5FDF7E5FA074D074EB54227
:104B100009D20024013E761BB60808CD9847230031
:104B20000134B342F9D170BDF4810010FC81001052
:104B3000030010B5080011001B68984710BDC0465F
:104B4000F0B5C64600B5437D07000C001600002BEB
:104B500046D0002A17DD0B780A2B24D00023984674
:104B6000012E13D001252900635C01350A2B26D0C4
:104B7000B542F8D1464509DCA419013C23780D3B28
:104B80005A4253413B7580BCB846F0BD4346E018DD
:104B9000A419F11A013C3B68984723780D3B5A420F
:104BA00053413B75EFE7037D002BD7D102210F481E
:104BB0003B689847012EDFD001239846D2E7631E59
:104BC0005B5C0D2BD4D0884504DA4346C91AE01843
:104BD0003B689847022105483B68A8469847C7E7C5
:104BE0000368110020009847CDE7C046788D00107B
:104BF000F0B5C6460B6806000C0000B5802B06D049
:104C00005A1C2260E418267180BCB846F0BD0F4BD8
:104C10001D68002D16D00B1D98460D4F02E02D6922
:104C2000002D0FD02B68002BF9D03B68002B01D052
:104C3000AB42F4D1280041462268FFF781FF2D697D
:104C4000002DEFD101220023DBE7C04638430020CE
:104C500040430020F0B54546DE464E465746E0B597
:104C600083B091461C0080460D00FCF76BFF0023CB
:104C7000304A12184B41002B02DA01222E4B5242CD
:104C80002E4908008A4603F07FFA07006B1C03D107
:104C9000404603F0A5F80500002C27D0284E294BEC
:104CA0001C68002C18D04B46002B21D1264B99466E
:104CB00002E02469002C0FD02368002BF9D04B466A
:104CC0001B68002B01D09C42F3D120002A004146F2
:104CD000B0472469002CEFD1002F26D1280003B063
:104CE000F0BCBB46B246A946A046F0BD174ED6E77B
:104CF000154B99460A239B4602E02469002CEBD011
:104D00002368002BF9D04B461B68002B01D0A3422F
:104D1000F3D12A0041462000B0476B465A46200096
:104D2000DA71D91D0122B047E7E7504603F0ECF9EC
:104D3000D4E7C04640420F00FFFFFF7F203A00202B
:104D4000414B00103843002040430020314B0010FD
:104D50000A4A1368002B05D10CE01A001B691032B7
:104D6000002B07D08342F8D1002902D118691060C6
:104D7000196170470029FCD01060FAE73843002021
:104D800010B500F0ABF9012010BDC046F0B5CE461D
:104D9000474680B583B06B460600DD1D2870FCF7E2
:104DA000D1FE0023194A12184B41002B02DA0122CE
:104DB000174B524217490800884603F0E5F9164B95
:104DC00081461C68002C14D0144F02E02469002C8A
:104DD0000FD02368002BF9D03B68002B01D09C42F8
:104DE000F4D1200001222900FFF7AAFE2469002C3B
:104DF000EFD14B46002B05D1300003B0C0BCB94603
:104E0000B046F0BD404603F07FF9F5E740420F00A1
:104E1000FFFFFF7F203A002038430020404300205E
:104E200070B5040002F0DCFF01230100050001223F
:104E30002000FFF70FFF084B1C68002C06D06368AA
:104E4000002B05D098472469002CF8D1280070BDAC
:104E50002469002CF3D1F9E738430020F0B5CE46A1
:104E6000474680B5A3B004000D00FCF76BFE00239D
:104E7000274A12184B41002B02DA0122254B5242DD
:104E8000254E300003F080F9002322000193070033
:104E90002B00224801A9FFF7EBFD214B80469946E4
:104EA0001C68019B002B1AD0002C2FD01D4D02E056
:104EB0002469002C0FD02368002BF9D02B68002B1D
:104EC00001D0A342F4D12000019A02A9FFF738FED5
:104ED0002469002CEFD14B461C6800230193002C61
:104EE00006D06368002B0BD098472469002CF8D1BA
:104EF000002F07D1404623B0C0BCB946B046F0BD34
:104F00002469ECE7300003F0FFF8F3E70194EFE7E2
:104F100040420F00FFFFFF7F203A0020F14B0010BE
:104F200038430020404300200FB400B583B004A9EB
:104F300001C90191FFF792FF03B008BC04B0184704
:104F4000F0B5002915DD0E4B0D271A680D4B0E4CE0
:104F5000D3185D426B41451820215B001E5F047829
:104F6000A64207D093691942FCD101301460A842CF
:104F7000F5D1F0BD93691942FCD11760F2E7C04644
:104F8000106700200080FCBF0C670020204B70B52C
:104F900004000D1E1E682ADD002010211D4B013C5F
:104FA0001A689369194214D1013093691942FCD1EE
:104FB000136823548542F4D1002E08D05023936304
:104FC000516B183B0B4014498C4662441360280017
:104FD00070BD002E08D050239363516B183B0B40DB
:104FE0000D498C46624413600028F1D10CE0002E7C
:104FF0000AD05022074B1B689A63596B183A0A4033
:1050000005498C4663441A6003204042E0E7C046ED
:10501000FC4200201067002034100000064B10B541
:105020001B68002B06D00021044A12689163044AD1
:105030001068984710BDC046FC4200201067002051
:10504000004300200822034B19688B691A42FCD1E7
:105050007047C04610670020F8B51A4F1A4B3A68DF
:105060000500D31858424341184E14331C003368CE
:10507000002D02D0002B0FD0F8BD002BFCD000215A
:1050800020009563FBF7F8FE20001149FBF730FF85
:10509000104B35601D60EFE70E4B200019600C4986
:1050A0003560FBF7FBFE01212000FBF7E5FE5022F7
:1050B0003B689A63596B183A0A4007498C46634427
:1050C0001A60D9E7106700200080FCBFFC42002076
:1050D0001D50001000430020341000000D4B10B58F
:1050E0001B780D4B0D4C1B780D4B02211B780D4B83
:1050F00000202360FBF748FD02210120FBF744FD5F
:10510000E12120684902FCF7B9FD01210648FFF7BB
:105110001FFE10BDB48E0010B08E0010106700206E
:10512000AC8E001000400340C0330020C2784369B9
:105130001A707047F8B54746CE4681462F4D304C21
:105140002B7880B5A0462F482F4E304F994502D17D
:105150002B79DB0703D4C0BCB946B046F8BD0029A3
:1051600002D06B788B42F6D1002A02D0AB78934202
:10517000F1D1002802D0012000E000BF00243278E5
:105180000FE04346E1001B68091B89005B18002BF8
:1051900003D001209B69984732780134E4B29442ED
:1051A00007D8A242EDD8A21AD3009B1A9B00DB19A4
:1051B000EFE701214846FBF7C5FC36220021280015
:1051C000FDF7FAFF28000822FF210D30FDF7F4FF5C
:1051D00028001022FF211530FDF7EEFF0C4C237B39
:1051E000012BB8D101210B4D4942286802F0C4FFC0
:1051F00000232868637302F087FFACE7DC3F0020E0
:10520000343F00200000000016670020C08D001011
:10521000383F00201C410020F0B5CE46474680B5FF
:1052200004000D008BB001285BD1474B1E78002D88
:105230002ED1464D6B7BD9B2022B00D181E00329E0
:1052400052D001291FD1424FFB88002B00D0C2E170
:105250000121404B92B2494218689846EA8102F017
:105260008BFF03236B734346186802F04DFF012345
:105270003A782100D2095A400023D2013000D2B23C
:105280000093FBF76BFC0BB0C0BCB946B046F0BD59
:1052900002AF3A002E4B03CB03C2112016000021AF
:1052A00002226844FDF788FF01213470274CF57015
:1052B000E389284D736023684942F3606368286876
:1052C0003361A368B760736102F056FF002328685A
:1052D000637302F019FF3369002BD4D03000984774
:1052E000D1E71D4B1E78A2E7194F7B78092B35D0EB
:1052F000184B994602AB984606CF06C311201E00F4
:10530000022200216844FDF757FF34700024F47036
:10531000EB89012173604346B3602B684942F36017
:105320006B683361AB6873614B46186802F024FF09
:105330004B4618686C7302F0E7FE3369002BCDD141
:10534000A1E7034F84E7C046DC3F0020383F002040
:10535000144000201C410020483F00203B78002BD7
:10536000C6D1012CC4D12723A84E9846F35CDB0795
:1053700000D447E1012201213078FBF7F9FB4346D5
:1053800042463000F35C2730A343B354A04B196866
:10539000994601F00DFA28239846F35CDB0710D5F7
:1053A000812201213078FBF7E3FB43460122F35CC5
:1053B000300093434246B3544B462830196801F0FD
:1053C000F7F929239846F35CDB0710D50222012167
:1053D0003078FBF7CDFB43460122F35C300093436A
:1053E0004246B3544B462930196801F0E1F92A23AB
:1053F0009846F35CDB0710D5822201213078FBF759
:10540000B7FB43460122F35C300093434246B3545A
:105410004B462A30196801F0CBF92B239846F35CF0
:10542000DB0710D5032201213078FBF7A1FB4346AF
:105430000122F35C300093434246B3544B462B3079
:10544000196801F0B5F92C239846F35CDB0710D5F9
:10545000832201213078FBF78BFB43460122F35C6A
:10546000300093434246B3544B462C30196801F048
:105470009FF92D239846F35CDB0710D50422012108
:105480003078FBF775FB43460122F35C3000934311
:105490004246B3544B462D30196801F089F92E234A
:1054A0009846F35CDB0710D5842201213078FBF7A6
:1054B0005FFB43460122F35C300093434246B35402
:1054C0004B462E30196801F073F92F239846F35C90
:1054D000DB0710D5052201213078FBF749FB434655
:1054E0000122F35C300093434246B3544B462F30C5
:1054F000196801F05DF930239846F35CDB0710D59D
:10550000852201213078FBF733FB43460122F35C0F
:10551000300093434246B3544B463030196801F093
:1055200047F931239846F35CDB0710D506220121A9
:105530003078FBF71DFB43460122F35C30009343B8
:105540004246B3544B463130196801F031F93223E9
:105550009846F35CDB0710D5862201213078FBF7F3
:1055600007FB43460122F35C300093434246B354A9
:105570004B463230196801F01BF933239846F35C2F
:10558000DB0710D5072201213078FBF7F1FA4346FB
:105590000122F35C300093434246B3544B46333010
:1055A000196801F005F934239846F35CDB0700D451
:1055B000A0E6872201213078FBF7DAFA4346012280
:1055C000F35C300093434246B3544B463430196881
:1055D00001F0EEF88EE60E4B02391868984602F09C
:1055E000CBFD02236B734346186802F08DFD8021CA
:1055F0003A782B680A40F988300000912100FBF7C7
:10560000ADFA40E6024B9946C5E6C046DC3F0020B5
:105610001C410020002070477047C046002310B591
:1056200013800B8001280CD1074C23799B07D80FDE
:10563000002B05DAE388002B03D00B80238913802D
:1056400010BD0020FCE7C046DC3F002010B5FFF78E
:10565000E1FF10BDF0B54F464646D646C0B5384FBF
:1056600005003B780E00984210D0FF2B10D031007F
:1056700028003D70FBF742FA002804D1E0BCBA468E
:10568000B146A846F0BD2800FBF740FA0120F5E737
:105690002C4C2000143CFBF7ADFD200001F0CCF9B0
:1056A000294B1C60294C2000FBF796FD284B1C6001
:1056B000284B002B40D0284B1800984600E000BF34
:1056C000264B18600022264B00211A602548103214
:1056D000FDF772FD244C362200212000FDF76CFD01
:1056E00020000822FF210D30FDF766FD200010226A
:1056F000FF211530FDF760FD43461A781B4B00244F
:105700009A46164B99460FE04B46E1001B68091B71
:1057100089005B18002B03D05B68984743461A78D2
:105720000134E4B29442A2D8A242EDD8A21AD30026
:105730009B1A9B005344EFE7074B9846C2E7C046CD
:10574000F4330020EC3300202841002020410020C9
:105750001C4100200000000016670020343F00209C
:10576000483F0020383F0020DC3F0020C08D001063
:10577000F0B5CE46474680B54378040083B0002B91
:105780000DD18368002B0AD00578002D0ED13D4B3A
:10579000DB78DB0603D53C4E737B002B10D0002555
:1057A000280003B0C0BCB946B046F0BD012DF6D10B
:1057B000364B1B79DB07F2D5334E737B002BEED1D2
:1057C0000121334F4942386802F0D6FC737B3F68B1
:1057D000DAB2002B03D0380002F096FCDFE7012399
:1057E00035737373E368F281336023690822736051
:1057F0006369A168B360274B18009846FDF7E2FC87
:10580000380002F081FC012D2FD1204B187823693C
:10581000002B05D029004246FBF7B0F90500BFE791
:105820006B46DF1D04233B701B4B29004246B760CB
:105830007360FBF7A3F9051EB1D0184B9846184BBF
:1058400099463B78042B13D143461B78FF2BF8D0A5
:105850004B46186801F048F80028F2D143461B78FF
:10586000FF2BEED000F064F8EBE7064B1878CEE79C
:105870006369002B01D03A781A703B78E370F389A2
:1058800063608DE7483F0020383F0020DC3F002068
:105890001C410020144000202D510010F433002042
:1058A0002841002010B51C4C88B02078FBF742F945
:1058B0000F220300E0781340904318430022E07069
:1058C0000A20164B00211A7068440532FDF774FC5B
:1058D0006A46134B0021138108232078938102AA82
:1058E000FBF736F9002801D108B010BD0D4B082296
:1058F0000093802300211B0302A80193FDF75CFCA9
:105900006B460493084B02A80593084B06930723A4
:105910000793FFF72DFFE7E7483F002019670020B6
:1059200007050000800600011C400020955B001068
:10593000F0B557464E464546DE46884BE0B59A469A
:10594000874B81460027984685B0864E01AD346866
:105950006269EFF3108172B61368002BFCD0BFF3BD
:105960005F8FA1612000290000F0C6FF6269A36972
:10597000BFF35F8F176083F31088002860D06B78C7
:10598000022B15D00CD8002B20D06A7929792878E1
:10599000FFF7D0FB34686269EFF3108172B6DBE782
:1059A000032BD4D16B68002BD1D0A8689847CEE7E1
:1059B0007F232979AA780B40002A48D1002B3FD1B8
:1059C0000020AA686979FFF727FCC0E74346DB7827
:1059D000DB0660D5434628781B7898420BD14146B8
:1059E0002A794978914206D144466979A4788B4650
:1059F0008C4200D182E0306800F076FF3468834644
:105A00006269EFF3108172B61368002BFCD0BFF30C
:105A10005F8FA1612000290000F0BCFF6269A369CB
:105A2000BFF35F8F176083F31088002804D04A46C5
:105A300069782878FFF7F0FD5B46002B00D186E7F8
:105A400005B0F0BCBB46B246A946A046F0BD012A4F
:105A5000F6D150460079C007F2D55800504483462D
:105A6000CC09A3445C4620346079904360710420E3
:105A7000627982436271002B66D05B463A4A5B7D55
:105A80001278934231D3DBD138484469AB686A79E4
:105A90000120A0475BE743461022DB7841461343D1
:105AA0004246D37028782B796A7908704B708A70D7
:105AB000002B00D04BE7FBF731F8322000F04CFE12
:105AC00043461878FBF730F8E120400000F044FE30
:105AD00043461878FBF71CF800283BD143461022B8
